:020000040800F2
:100000000080002091250008D1020008D5020008D8
:10001000D9020008DD020008E1020008000000002B
:10002000000000000000000000000000E5020008E1
:10003000E902000800000000ED020008F1020008DB
:10004000E1250008E1250008E1250008E125000878
:10005000E1250008E1250008E1250008E125000868
:10006000E1250008E1250008E1250008E125000858
:10007000E1250008E1250008E1250008110A000833
:10008000E1250008E1250008E1250008E125000838
:10009000E1250008E1250008E1250008E125000828
:1000A000E1250008E1250008E1250008E125000818
:1000B000E1250008E1250008E1250008E125000808
:1000C000E1250008E1250008E1250008E1250008F8
:1000D000E1250008E1250008E1250008E1250008E8
:1000E000E1250008E1250008E1250008E1250008D8
:1000F000E1250008E12500080000000000000000E4
:100100000000000000000000E1250008E1250008D3
:100110000000000000000000E1250008E1250008C3
:10012000E1250008E1250008E1250008E125000897
:10013000E1250008E1250008E1250008E125000887
:10014000E1250008000000000000000000000000A1
:10015000000000000000000000000000000000009F
:100160000000000000000000E1250008E125000873
:10017000E125000800000000E12500080000000063
:10018000E125000800000000000000000000000061
:1001900010B5054C237833B9044B13B10448AFF3C1
:1001A00000800123237010BD3002002000000000F9
:1001B0009001000808B5064B1BB106480649AFF38D
:1001C00000800648036813B1054B03B1984708BD8A
:1001D00000000000900100083402002030020020DE
:1001E00000000000704700BF704700BF704700BFAD
:1001F000704700BF704700BF704700BF70B52E4CFE
:100200002E4B226819885E88C2EB023C8C444FEA70
:100210002C3205461846226000F0CAFC24682848A3
:10022000284A631003FB04F14FEA615CC6F50046FF
:100230000CF1800404FB06F6331247F6FF718B4283
:10024000A8BF0B468342B8BF0346106883EAE37633
:10025000A6EBE376B04203DBC0EBC03E7644F61378
:10026000194C166022681ABB184ED6F8884CD6F87E
:100270008C0C04F2FF32C0EB020C4FEA231E0EF589
:100280000064CCF30901A0B209B904223270D6F897
:100290008C1C01F1010C06EB410ECCF30904C6F8ED
:1002A0008C4CAEF888045B429EB22E806E8070BD8E
:1002B000511E2160F7E700BF940F0020880F002037
:1002C0000180FFFF9C0F0020040000204C02002052
:1002D000704700BFFEE700BFFEE700BFFEE700BFBC
:1002E000FEE700BF704700BF704700BF704700BF08
:1002F000F8B53A4C3A4D23682846591C216000F065
:10030000AFFD28787F2802D1364E01223270364860
:10031000364F374D00F0D8FC266839683548324BE7
:1003200090F800C006F00F02B2EB612FA1F5005764
:10033000ACBF00264FF47F46A1F58040B2EB672F9B
:10034000CCBF00274FF47F47A1F5C04EB2EB602F22
:10035000C8BF0025B2EB6E2FCCBF00224FF47F0246
:100360009F60DE6083E82400BCF1030F11D8DFE852
:100370000CF02B1E0214256815F4807101D04FF487
:100380007F01196059609960D9601961596199615B
:10039000D961154800F0A8FCF8BD4FF47F4412481D
:1003A0001C615C619C61DC6100F09EFCF8BD226810
:1003B000C2F3C11C0CF104064FF47F4043F8260041
:1003C000094800F091FCF8BD276817F08001DCD0E7
:1003D0000749196159619961DAE700BF881900205E
:1003E000980F002080110020680F00209C0F002033
:1003F00000FFFF00640F00202DE9F0414B4C064642
:10040000884601F011FC206801F0B0FCB8F1000F43
:1004100000F08A8008F1FF37C7F3820720680025C3
:10042000002F77D0316801F0BFFC206804252844F4
:10043000A845206078D9012F6CD0022F2AD0032F35
:1004400021D0AF4218D0052F0FD0062F06D07159FA
:1004500001F0AAFC2068284420600825715901F0A9
:10046000A3FC2068043004352060715901F09CFC25
:100470002168081D04352060715901F095FC22683F
:10048000101D04352060715901F08EFC2368181D81
:1004900004352060715901F087FC2768381D043548
:1004A000206037E0715801F07FFC236805F1080CEB
:1004B000181D206056F80C1001F076FC276805F135
:1004C0000C01381D2060715801F06EFC206805F1A8
:1004D000100204302060B15801F066FC276805F175
:1004E0001403381D2060F15801F05EFC216805F10D
:1004F0001802081D2060B15801F056FC206805F173
:100500001C0704302060F15901F04EFC2368181DCF
:1005100020352060715901F047FC2068291D021D1B
:10052000884510462260BDD8BDE8F0818C0F0020C0
:10053000F8B5164D164C174E28464FF47A71012225
:1005400000F0AEFF0822134620464FF0005100F0A5
:10055000C9FCD4F8883CC4F88C3C0F480F4AD4F846
:10056000107D0F49C4F8147D4FF0100C002385F85E
:100570000CC1A4F88434A3602370A36123612B70A1
:10058000A5F80E31338003701160F8BD68100020AB
:100590004C020020900F0020640F00208C0F0020E0
:1005A0000080000810B51048104C00F053FA1048B5
:1005B00000F004FB0F4800F029FC204601224BF616
:1005C000803100F0FFF920460B4900F013FA0B4B85
:1005D0000B480C4A5A604FF0F00C80F823C0002101
:1005E000072499601C6010BD880F0020A00F002018
:1005F000680F0020980F0020FD01000810E000E0C7
:1006000000ED00E03F1901002DE9F04F83B0FFF746
:10061000C9FFFFF78DFF6E48802101F06BFDE0B947
:100620006C4CDFF8D0812278DFF8CC916A4E694BB0
:10063000042A31D14FF0010A0025D4F8140DD4F862
:10064000102D644FC2EB000B5FEA4B6311D0BAF17F
:10065000000F11D16148002D3CD0614800F094FAA0
:10066000604800F0CFF901F0A3F85F4801F0D8F836
:10067000FEE7BAF1000F09D00221002388F800102C
:10068000337030780028FCD0FFF752FF002DE4D102
:100690002278504B042ACDD0D3F88C0CD3F8881C88
:1006A000451AC5F309071F2F40F28F80D4F88C1C20
:1006B000D4F8882C474B8D1AC5F309071846002F2C
:1006C00000F083801978002977D0012979D000F0D3
:1006D00033FDEBE7D7F8101D07EB010C4A1C02F0C5
:1006E0007F03C7F8103D9CF8901C00F041FF871E67
:1006F000032FA2D8DFE807F0043A3A0201259CE76D
:10070000B9F800E03949DFF8D4B0CDF804E00EF0D4
:10071000070001EB002001274FF480720BF101016B
:1007200088F8007001F09AFFDDF804C00CEB0702B6
:1007300093B213F00702A9F800301AD000232C4915
:10074000D4F8107D8BF8003010220320ABF80E3166
:10075000C4F87C34A4F884348BF80C21C4F8147DDC
:100760002070C4F87814C4F8741466E74FF0010AD6
:1007700063E7204B1D48032119704FF4006101927B
:10078000FFF73AFED4F8882CC4F88C2C1949019A4A
:10079000D4F8103DC4F8143D4FF0100C02208BF833
:1007A0000020ABF80E21A4F88424A260A26122618B
:1007B0008BF80CC10F7020703FE7184600F05AFC10
:1007C00074E7184600F084FC70E74FF0000A33E746
:1007D000000400484C020020801100206810002016
:1007E000880F0020A00F0020008000088411002046
:1007F00000FCFFFF640F0020900F002010B5104C8C
:1008000010491148224601F0EDFE22460F491048DA
:1008100001F0E8FE22460F490F4801F0E3FE2246B0
:100820000E490F4801F0DEFE22460E490E4801F047
:10083000D9FE22460D480E49BDE8104001F0D2BE57
:1008400000000020ED010008A00F0020F1010008C9
:10085000880F0020F5010008680F0020F90100084A
:10086000980F0020E5010008681000204C020020CD
:10087000E901000800B54FF4003083B0012101F018
:1008800043FD02A94FF450634FF0000C41F8083DBE
:10089000022269464FF090408DF806C08DF807C0DF
:1008A0008DF804208DF8052001F0B2FA4FF0904049
:1008B0000821052201F024FC4FF090400A21052276
:1008C00001F01EFC4FF090400B21052201F018FCB6
:1008D00003B05DF804FB00BF30B5114C85B00D4688
:1008E0004FF48040012101F02BFD204601F052FD24
:1008F00000234FF4007220466946ADF80020ADF8A1
:100900000230ADF80430ADF80630ADF80C30029589
:1009100001F0B2FD2046012101F01EFE05B030BD00
:10092000003800402DE9F043224CDFF89480064661
:1009300001208DB00D46014601F0E6FC2046002165
:1009400001F05AF9204601F0A7F806F1080100234A
:100950004FF0100C4FF0800E4FEA850920460291AF
:100960004FF4005201A94FF480754FF480672026A0
:10097000CDF80CC005930B93CDF818E00A92ADF8B2
:100980001090CDF8048007950897099601F006F9B4
:10099000204606210122084C01F03CF94FF40041A9
:1009A000216006480221012201F0E6FD0DB0BDE8FC
:1009B000F08300BF5800024000E100E00038004032
:1009C0000C38004070B50A4B1546002204461860EA
:1009D0000E4642600560FFF74DFF20463146FFF7A7
:1009E0007BFF20462946BDE87040FFF79BBF00BF54
:1009F0008419002041600248012101F0FDB800BFC8
:100A0000580002400148002101F0F6B858000240A9
:100A100008B50E4B1A684FF4C021596091030AD4EF
:100A2000530300D408BD0A48026892E80A0002F1A4
:100A30000800984708BD064B1B6893E8060001F1C3
:100A4000020C03EB8C00904708BD00BF0000024081
:100A5000841900202DE9F043012193B007464FF49B
:100A6000007001F05FFC4FF4404001F061FB4FF477
:100A70008020012101F048FC4FF40030012101F0F9
:100A800043FC0120014601F03FFC00240226032321
:100A900001A939488DF80830012501968DF80B40E1
:100AA0008DF80A4001F0B4F901A94FF0904001958A
:100AB000DFF8D09001F0ACF94FF080084FF4807C63
:100AC0004FF4806E20224FF400532C48CDF834C0F0
:100AD00007A9CDF838E00F92109308970994ADF864
:100AE00028600B941194CDF81C90CDF8308001F063
:100AF00055F82946214801F07FF84FF460224FF461
:100B000000631F48049203A905938DF80C508DF8DB
:100B10000D408DF8186000F01BFF21462A4618484A
:100B2000062300F04DFF324615480921062300F048
:100B300047FF1348294600F02DFF114800F03AFF07
:100B40000F4800F0A5FF0028FAD10D4800F02CFF57
:100B50000B4800F099FF0028FAD10121084800F065
:100B600089FF4FF4004078803880054800F07CFF12
:100B700013B0BDE8F08300BF000400480800024045
:100B8000002401404C24014010B5074C00212046B0
:100B900000F070FF2046002100F0FCFE0348002119
:100BA000BDE8104001F028B80024014008000240D0
:100BB000014800F059BF00BF002401402DE9F04179
:100BC000012188B005464FF4800001F09DFB4FF4F1
:100BD0000030012101F098FB08AF4FF48050012153
:100BE00001F0A0FB802347F81C3D002402264FF0B3
:100BF0000108394632488DF808808DF809608DF873
:100C00000A408DF80B4001F003F9394640222C4888
:100C10008DF808608DF8096001928DF80A408DF812
:100C20000B4001F0F5F805222548062101F068FA8D
:100C300039464FF090404FF480578DF808608DF89A
:100C400009608DF80A408DF80B40019701F0E0F83B
:100C50004FF090400C21062201F052FA4FF400763A
:100C60004FF4827E4FF4706C3822072303A9154895
:100C7000ADF80EE0ADF810C0ADF81820ADF81C309E
:100C8000ADF80C40ADF81240ADF81440ADF81A4084
:100C9000ADF8166001F0B4FB4146A846094801F0E2
:100CA0004BFC48F8044B48F8044BC8F80040EC6093
:100CB0002C616C61AC61EC6108B0BDE8F08100BFF3
:100CC00000140048003001400246002370B442F88E
:100CD000043B42F8043B70BC1360C3600361436192
:100CE0008361C361704700BFD0F800C08169426969
:100CF00003692DE9F0031CF47F0F47688668C56817
:100D0000C469DFF800810CBF4FF000094FF0010902
:100D10001CF47F4F0CBF0020022017F47F0F49EA1C
:100D200000090CBF0020012017F47F4F40EA890C16
:100D30000CBF0027022716F47F0F4CEA07090CBFEF
:100D40000020012016F47F4F40EA89070CBF0026DF
:100D5000022615F47F0F47EA060C0CBF0020012085
:100D600015F47F4F40EA8C070CBF0025022514F4D0
:100D70007F0F47EA05060CBF0020012014F47F4FC7
:100D800040EA86070CBF0024022411F47F0F47EAD3
:100D900004050CBF0026012611F47F4F46EA8509A1
:100DA0000CBF0021022112F47F0F49EA010C0CBF95
:100DB0000020012012F47F4F0CBF0027022740EAD9
:100DC0008C0213F47F0F0CBF0025012542EA0704B3
:100DD00013F47F4F45EA84060CBF4FF000094FF033
:100DE0000209802346EA0900C8F8183000BF054A06
:100DF0004FF08008A2F8288000BF0349BDE8F00347
:100E000088817047001400480030014070B582B0FE
:100E1000054602AC01214FF4802001F075FA8023D1
:100E2000012244F8083D6946002402260B488DF84B
:100E300007208DF804408DF806408DF8056000F01D
:100E4000E7FF694640230548009300F0E1FF28468C
:100E5000FF2100F8011B017002B070BD00040048C2
:100E600070B50C4D06780446720028468021D6B233
:100E700001F040F96378304320704FEA430C284674
:100E800040215FFA8CF501F035F940EA0501617007
:100E900070BD00BF0004004870B51C2604463246F1
:100EA0000021383001F0E3FB4FF400753246002199
:100EB00004F1540001F0DBFB2A46002104F170002C
:100EC00001F0D5FB2A4604F51C70002101F0CFFB90
:100ED0000020B4F88034A4F882342061A061A4F822
:100EE000700470BD2DE9F007174C54F82260B6F974
:100EF0000050B6F902A0B6F90490B6F90680B6F92A
:100F00000A70B6F908C0B6F90C60C56100244FF448
:100F10000025C0F88C4CC0F820A0C0F8884CC0F860
:100F20002490C0F8144DC0F82880076346634560DC
:100F3000C0F8104DC0F82CC0A0F880344161BDE865
:100F4000F007FFF7A9BF00BFC02600082DE9F00792
:100F5000B0F88094B0F8708409F1FF3708F580721A
:100F60000024012F1FFA82FC254610DD0123C3EB6C
:100F70000C065FFA86FA00EB4A020133B2F97060A0
:100F8000B2F970A29BB2BB4235445444EFDB002956
:100F900049D0C9EB0C011FFA81F909F1020700EBF6
:100FA00048065FFA87FC0CF13802B6F97070B6F9A2
:100FB00070A230F912C009F1010684EAE471A1EBD4
:100FC000E47185EAE579A9EBE5792F44A24408F1BB
:100FD000FF08CCEB07074944CCEB0A0AF2B25FFAF0
:100FE00088F38AEAEA7CACEBEA7C87EAE778A8EB4C
:100FF000E77801EB810900EB420600EB43034FEA7F
:101000009901C4448C45B6F87090B6F87022B3F8D4
:101010007060B3F8703210D9B0F88264721C544614
:101020003D46A0F88224002DACBF02200020002CF9
:10103000A8BF0130BDE8F007704705FA89F704FA48
:1010400082FA36B21AB2C6EB0708C2EB0A0C88EA7B
:10105000E879A9EBE8798CEAEC73A3EBEC734B44E9
:101060008B42E0D9B0F88244611E45466446A0F840
:101070008214D8E710B417E0D0F8881C426883685F
:1010800000EB410C0133BCF8884483600FFA84FC08
:101090000131ACEB2224C1F309012244B3F5805F96
:1010A000C0F8881C42600BD2D0F88C2CD0F8883C59
:1010B000D11AC1F30904002CDED15DF8044B70474E
:1010C000002401228460C46002705DF8044B704704
:1010D00070B41CE0D0F8885C061D00EB450C96E867
:1010E0001600BCF888341EB2A6EB212C0132013563
:1010F0000CFB0CF3C5F30905614404EB2314B2F5B2
:10110000805FC0F8885C4160C46082600AD2D0F819
:101110008C2CD0F8883CD11AC1F30904002CD9D109
:1011200070BC70470021B4F5F03F8160C160EED320
:1011300002260670F4E700BF2DE9F04F804683B029
:101140000BE0BCF1050F00F05F81BCF1020F00F075
:101150004A81BCF1030F00F0FD80D8F88C2CD8F840
:10116000883CD01AC0F30901002900F05F81D8F84B
:101170001440D8F81010D8F8886C019421444FEA34
:10118000116B0BF1400208EB4604C44BD8F83C70DD
:101190000097D0B2B4F8887433F9102033F91BB03B
:1011A000D8F80430D8F820A0D8F85850D8F81C90B7
:1011B000D8F824C038B2A0EB23270BFB07F0544229
:1011C000031207FB04F20098C8F83830121205FB2E
:1011D0000AF409FB024B00FB0AF4D8F85C00C8F8DB
:1011E000542009FB034A00FB0CB9D8F82840D8F872
:1011F000600000FB049BD8F84040D8F82C00D8F8D9
:10120000689004FB0CACD8F8644004FB00BBD8F831
:101210002800D8F8444004FB00CAD8F80400D8F8E5
:1012200030C00136C6F309040744D8F82C60D8F85A
:101230004800C8F8047000FB06AAD8F83470D8F843
:101240006C60C8F8884C0CFB09BBD8F86440C8F83F
:10125000684006FB07B6D8F84CB0C8F86C90D8F8D0
:101260005090C8F84C000BFB0CA409FB074A002E59
:1012700098F800C0D8F84400C8F85820ACBF012244
:101280004FF0FF32BAF1000FC8F850B0C8F848006C
:10129000ACBF4FF0010B4FF0FF3BD8F81800C8F877
:1012A0003C30BCF1020FD8F86030D8F85C70B8F868
:1012B0007094C8F8643014BF02FB0AF2CAEB06024D
:1012C00000EB400318BF0BFB1622D8F84040C8F8CB
:1012D0006070C8F85C501A44009D019FC8F84440F3
:1012E000C8F8405008EB4904951001EBC5014FEADE
:1012F0002A23361207EBE202C8F81010C8F818507B
:10130000C8F81420A4F87030A4F87062B8F882A469
:1013100009F101000AF1FF35C4B2A9B2A8F870447E
:10132000A8F8821400297FF414AFB8F880B4A8F8A4
:1013300082B4BCF1030F7FF404AFD8F8144D08EB6E
:10134000040A04F1010B0BF07F0304268AF8906C69
:10135000C8F8143DB8F87074B8F8805407F5807177
:101360001FFA81F94FEA450C002D00F0948000200F
:1013700003460646C0EB0902D0B208EB400A9D4284
:10138000BAF97040BAF9707203F1010B94BF0121F0
:101390004FF0FF311FFA8BF394BF4FF0FF32012261
:1013A00004FB0166634502FB07661846E2DBD8F8DA
:1013B0007C44D8F87474B442B8BFC8F87C64002E7A
:1013C000BCBF0024C8F87C44B74207DDD8F87814C5
:1013D0008F4203DDD8F87C349F423DD0C8F8787442
:1013E000C8F87464B9E64046FFF7B0FD48B9B8F8EC
:1013F00084E40EF1010C1FFA8CF3202BA8F884343E
:1014000017D098F800C0A4E601214046FFF79EFDE2
:10141000D8F8141D08EB01024D1C82F8900C05F061
:101420007F0098F800C0C8F8140D92E603B0BDE83C
:10143000F08FA3F58467D8F8106DC8F87C044FF0DE
:101440000309A8F88404C8F8146D88F80090C8F857
:101450007874C8F874747DE7A9EB55095FFA89FCC4
:1014600008EB4C0ABAF97020002AB7DABAF9700210
:101470000028B3DDB8F884B40BF10104A1B204294B
:10148000A8F8841405F1FF3504BF052188F8001081
:10149000A8F88254A2E7664689E700BF080000204A
:1014A000002310B4102480F80C41A0F8101180F82B
:1014B00012210370A0F80E31A0F80A31C0F81431DF
:1014C0005DF8044B704700BF90F80C3143FA01F20D
:1014D000D30706D504290AD8DFE801F029400634ED
:1014E0001400032303707047022380F80C3190F836
:1014F0000D3133B90122A0F806314370A0F808314C
:1015000002707047B0F80E11B0F810C14B1C9AB2BF
:101510009445A0F80E2102D8B0F80A1121BB4FF073
:10152000160C102380F80CC180F80D31704790F82C
:101530000DC10CF1FF32D3B2082180F80D3180F8D3
:101540000C11D6E790F80D1101F1FF3C5FFA8CF316
:10155000012280F80D3180F80C21CAE70C2180F8B7
:101560000C1190F80D31C4E705220270704700BFDE
:101570002DE9F84F037804460A46A3B1012B0FD199
:10158000B0F80651B0F808016119471C4E78B8B29E
:10159000324304284A70A4F808010AD094004C7021
:1015A0001846BDE8F88FFFF78FFF23781846BDE88F
:1015B000F88F05F101081FFA88F90025B9F5827F37
:1015C000A4F80691A4F8085102D04C446570E7E7EE
:1015D000744A631C04F201154FF0FF309A4693F8E9
:1015E00002901AF8011B93F803809AF800A093F870
:1015F00004C05F799E7980EA010B5FFA8BF10833B2
:1016000052F821B013F8011C8BEA102080EA0A0A74
:101610005FFA8AFBAB4252F82BA08AEA102080EADC
:1016200009095FFA89FB52F82BA08AEA102080EAA8
:1016300008085FFA88F952F829B08BEA102A8AEA7A
:101640000C00C0B252F820C08CEA1A2888EA0707BA
:10165000F8B252F8207087EA182989EA0606F0B233
:1016600052F8207087EA192686EA0101C8B252F8BA
:10167000207087EA1620B1D194F8026194F80151E4
:1016800094F8043194F803214FEA064B4BEA056ABB
:101690004AEA0301C74341EA0220B84207D00423C3
:1016A0002370B4F80A114F1CA4F80A7178E794F873
:1016B000126102252570002E71D0D4F81411002378
:1016C00004EB030903F1010A99F801B0364A3748DF
:1016D0008BEA116B89F801B004EB0A0902FB01FBEC
:1016E00099F80110804684460646054603F1020A31
:1016F000584481EA106BA24489F801B09AF801B00D
:1017000002FB00F94746C84403F103098BEA186B52
:10171000A1448AF801B099F801A002FB08F8C4447A
:1017200003F1040B8AEA1C68A34489F801809BF842
:10173000019002FB0CFC3846394603F1050A674468
:1017400089EA1768A2448BF801809AF801B002FB7D
:1017500007F73E4403F106098BEA1667A1448AF8AD
:10176000017002FB06F699F80170354403F1070A8F
:1017700087EA1566A24489F8016002FB05F59AF82C
:1017800001C02844083302FB00F2B3F5807F8CEAE5
:10179000106011448AF8010092D1C4F81411022398
:1017A0007FE700BF242700080D6619005FF36E3C39
:1017B000F0B41549154E164B164A174C174D4FF0FD
:1017C000FF300427C1F88000C1F88400C1F880010F
:1017D000C1F884013760196841F001061E60106885
:1017E000044014601F6827F0847C2CF48031196059
:1017F0001E6826F4802018601468002324F4FE0775
:1018000017602B60F0BC704700E100E010E000E0E2
:1018100000100240D01002400000FFF8A01102406A
:1018200008B54368026882F30888984708BD00BF7E
:10183000704700BF02480349034A00F0D3BE00BF0F
:101840008819002031180008000000203D4A3E4B56
:10185000D2F8881041F47000C2F888001A6842F08B
:1018600001011960586800F47F025A60196821F07C
:10187000847020F480321A60196821F48020186086
:101880005A6822F4FE015960D86A20F00F02DA6229
:10189000196B82B021F0F02020F07301002219634F
:1018A0009A6000920192186840F48031196003E058
:1018B0000098B0F5A06F0AD0234B1A6802F40030EC
:1018C000019000994B1C0093019A002AF0D01E4908
:1018D0000B6813F4003218BF01220192019801280D
:1018E00005D018494FF000638B6002B07047174A6B
:1018F000154B12211160586858605A685A6059682F
:1019000041F4806058605A6822F47C11596058682C
:1019100040F4E8125A60196841F0807018600A4B70
:101920001A689201FBD5596821F0030058605A6883
:1019300042F002015960044B586800F00C02082A7A
:10194000F9D1CEE700ED00E0001002400020024097
:10195000F0B445680F788C684E684A780C4B25F4D3
:10196000807C4CEA07254560876826433B4046EA71
:10197000030444EA42028260097BC56A4F1EFEB23C
:1019800025F4700343EA0654C462F0BC704700BFFC
:10199000FDF7F1FF836819B923F0010181607047F9
:1019A00043F0010282607047836843F00401816064
:1019B000704700BF836843F008018160704700BF33
:1019C000092970B421D9A1F10A0505EB450C0724BA
:1019D000C56804FA0CF603FA0CFC25EA060343EA90
:1019E0000C04062AC4601FD90C2A2DD90D3A02EB2B
:1019F0008205C46A1F2606FA05FCA94024EA0C03E6
:101A000041EA0302C26270BC704701EB4104072641
:101A1000056906FA04FC03FA04F425EA0C0343EA18
:101A20000406062A0661DFD8561E06EB860C446BB8
:101A30001F2303FA0CF524EA050201FA0CF141EA2E
:101A40000206466370BC7047D51F05EB8506046B24
:101A50004FF01F0C0CFA06F3B14024EA030241EAEE
:101A60000205056370BC7047836843F4A001816080
:101A7000704700BF836819B923F480718160704793
:101A800043F48072826070478068C0F380007047C2
:101A90008068C0F3C0007047036833494FF6FE7298
:101AA0001A4088424FF00003026003604360836085
:101AB000C36044D02D4B984225D02D49884230D068
:101AC0002C4B984234D02C49884223D02B49884251
:101AD0003BD02B4B98420FD02A4988423CD02A4B0E
:101AE000984210D0294988421BD0294B98421FD0D8
:101AF000284988420ED0704753F87C1C41F0706032
:101B000043F87C0C704753F8181C41F0F00243F87E
:101B1000182C704751F8540C40F4702341F8543C91
:101B2000704751F82C0C40F4706341F82C3C70471E
:101B300053F8401C41F4704243F8402C704716485B
:101B4000436843F00F014160704751F8683C43F42B
:101B5000700241F8682C704751F8040C40F00F02F5
:101B600041F8042C704700BF080002401C000240EE
:101B70003000024044000240580002406C00024025
:101B800080000240080402401C040240300402406D
:101B90004404024058040240000002402DE9F00FC6
:101BA000D1F808A0D1F820B0D1F81090D1F8148065
:101BB000D1F818C0CF694E6A05688C6A8A890B68AB
:101BC00049684BEA0A0B4BEA090A4AEA080949EA5A
:101BD0000C0848EA070C4CEA060725F4FF463C438C
:101BE00026F0700544EA050707604260BDE8F00F83
:101BF0008360C160704700BF31B902684FF6FE7361
:101C000002EA030101607047026842F001030360C9
:101C1000704700BF03681AB923EA010101607047E9
:101C200041EA030202607047044B1A69120603D5A9
:101C30000349044859605860704700BF00200240C3
:101C400023016745AB89EFCD084BDA68D1070BD488
:101C5000D868C20601D502207047D96811F0040F78
:101C60000CBF042003207047012070470020024071
:101C700038B50446FFF7E8FF012872D1002C72D076
:101C8000FFF7E2FF013C012804F0070369D1002CB3
:101C900069D0B3B3012B2DD0022B25D0032B1DD03F
:101CA000042B15D0052B0DD0062B05D0FFF7CCFF4C
:101CB000012804F1FF3454D1FFF7C6FF012804F1D5
:101CC000FF344ED1FFF7C0FF012804F1FF3448D1A3
:101CD000FFF7BAFF012804F1FF3442D1FFF7B4FF48
:101CE000012804F1FF343CD1FFF7AEFF012804F1D5
:101CF000FF3436D1FFF7A8FF012804F1FF3430D1BB
:101D00008CB3FFF7A1FF013C0128254629D1FFF73D
:101D10009BFF012804F1FF3423D1FFF795FF012831
:101D2000A5F102041DD1FFF78FFF0128A5F10304DF
:101D300017D1FFF789FF0128A5F1040411D1FFF79E
:101D400083FF0128A5F105040BD1FFF77DFF0128D2
:101D5000A5F1060405D1FFF777FF0128A5F10704D7
:101D6000CED004B138BD052038BD00BF38B505461A
:101D70004FF43020FFF77CFF042800D038BD094C19
:101D8000236943F0020020616561216941F040024E
:101D900022614FF43020FFF76BFF256925F0020325
:101DA000236138BD0020024070B582B00023054693
:101DB0004FF430200C460193FFF75AFF042801D05E
:101DC00002B070BD114E3269A1B242F00100306123
:101DD0004FF430202980FFF74BFF042805D03569E8
:101DE00025F00103336102B070BDAA1C0192019974
:101DF0004FEA144CA1F800C04FF43020FFF738FF31
:101E0000346924F001053561DAE700BF00200240A3
:101E100000232DE9F00F1A460C6823E00132012758
:101E200007FA02FC0CEA040BE34503F1020300F09D
:101E30009E800126571C06FA07F909EA040CCC45D6
:101E400003F102066BD00126971C06FA07FB0BEA8A
:101E5000040CDC4503F1040632D00332102A03F1EE
:101E6000060359D0012505FA02F707EA0406BE4227
:101E7000D4D191F804A00AF1FF35EFB2012F4FF051
:101E8000030505FA03FB40F298806FEA0B0706682A
:101E900091F807903740076006680AFA03FA4AEAA1
:101EA00006050560C768032606FA03F827EA080551
:101EB000C560C76809FA03F646EA0705C560ADE7DD
:101EC0000D7905F1FF3A5FFA8AF8B8F1010F40F297
:101ED000E5800327B7406FEA0708D0F800C091F803
:101EE00007A008EA0C08C0F80080D0F80090B540C0
:101EF00045EA09070760C5680327B74025EA0705D3
:101F0000C560C7680AFA06F6033246EA0705102AD2
:101F1000C56003F10603A5D1BDE8F00F70470D7948
:101F200005F1FF3B5FFA8BFABAF1010F40F28B80AB
:101F30000327B7406FEA0708D0F800C091F807A060
:101F400008EA0C08C0F80080D0F80090B54045EAD7
:101F500009070760C5680327B74025EA0705C5607C
:101F6000C7680AFA06F646EA0705C5606BE791F806
:101F700004A00AF1FF36F5B2012D3FD94FF0030955
:101F800009FA03F86FEA0807066891F807B03740C6
:101F9000076006680AFA03FA4AEA06050560C76898
:101FA000032606FA03F827EA0805C560C7680BFA96
:101FB00003F646EA0705C5603BE7D0F808904D797F
:101FC00091F806806FEA0B0707EA090CC0F808C011
:101FD000D0F808B09D4045EA0B09C0F80890858804
:101FE000ADB225EA06068680858808FA02F848EA36
:101FF000050C1FFA8CFBA0F804B048E70326D0F8C4
:10200000089091F8068006FA03F5EF4307EA090CF9
:102010004E79C0F808C0D0F8089006FA03F545EAF2
:10202000090CC0F808C08688B5B225EA0B0BA0F8E9
:1020300004B0858808FA02F848EA05091FFA89FC05
:10204000A0F804C0A0E74FF00309D0F808B091F859
:1020500005A009FA06F86FEA080808EA0B0B91F8E0
:102060000690C0F808B0D0F808B00AFA06FA4AEAB2
:102070000B0BC0F808B0B0F804A01FFA8AFB2BEADB
:102080000C0CA0F804C0B0F804A009FA07F747EA5E
:102090000A091FFA89FBA0F804B04DE74FF00309C5
:1020A000D0F808B091F805A009FA06F86FEA080818
:1020B00008EA0B0B91F80690C0F808B0D0F808B009
:1020C0000AFA06FA4AEA0B0BC0F808B0B0F804A006
:1020D0001FFA8AFB2BEA0C0CA0F804C0B0F804A08D
:1020E00009FA07F747EA0A091FFA89FBA0F804B0C2
:1020F000F3E600BF038A19420CBF0020012070479D
:10210000CB0800EB830001F0070110B44FEA810C0B
:10211000046A0F2303FA0CF124EA01030362046A40
:1021200002FA0CF242EA040101625DF8044B7047C6
:10213000044B5A6822F4404159605A681043586071
:10214000704700BF0010024069494B6803F00C0261
:10215000042AF0B402D0082A00F09D80654A02608B
:10216000634B654C5968654F654EC1F3031514F810
:1021700005C022FA0CF141605D68C5F3022C14F829
:102180000C5021FA05F58560D3F804C0CCF3C22CBD
:1021900014F80C40E140C1605C68C4F3813C17F85E
:1021A0000C70B1FBF7F404615F68C7F3C36C16F8F9
:1021B0000C60B2FBF6F444611B6B4D4E5F0654BFDE
:1021C00048F212074FF400478761346B484BE7062B
:1021D0005ABF484CC461C2611F6BBE0658BF454F11
:1021E000434E54BF07620262346BA40721D141629F
:1021F0003F4F3C6B14F4403F31D185623C4B196B2F
:1022000011F4402F44D01D6B05F44027B7F5802F03
:102210005ED01A6B02F44024B4F5002F63D01E6B1D
:1022200006F44023B3F5402F04BF324BC362F0BC29
:102230007047316B01F00303012B39D0376B07F086
:102240000304022C47D0366B294F06F00301032903
:1022500004BF284941623C6B14F4403FCDD03E6B33
:1022600006F4403CBCF5803F24D0396B01F4403388
:10227000B3F5003F33D03F6B1D4B07F44034B4F54A
:10228000403F04BF1B4C8462196B11F4402FBAD13C
:10229000C562F0BC70474D684C68C5F38346E203E5
:1022A00006F1020708D4174C04FB07F2026057E757
:1022B00042629DE78262A1E7CB6A0E4903F00F0CF0
:1022C0000CF10102B1FBF2F507FB05F2026047E7F2
:1022D000C262F0BC70474FF40043436288E74FF49A
:1022E000004686628AE74FF40041C1629FE700BF63
:1022F0000010024000127A00200200200C02002090
:102300001002002000093D00054B5A6919B922EA64
:1023100000005861704740EA02015961704700BFF0
:1023200000100240054B9A6919B922EA0000986131
:10233000704740EA02019961704700BF00100240F7
:10234000054BDA6919B922EA0000D861704740EA02
:102350000201D961704700BF00100240054BDA68E6
:1023600019B922EA0000D860704740EA0201D9603A
:10237000704700BF00100240054B1A6919B922EAE4
:1023800000001861704740EA02011961704700BF00
:102390000010024008B5174B984212D016498842E7
:1023A0001BD0164A904200D008BD4FF400400121D6
:1023B000FFF7E2FF4FF400400021BDE80840FFF7BF
:1023C000DBBF4FF480500121FFF7C8FF4FF480506E
:1023D0000021BDE80840FFF7C1BF4FF48040012154
:1023E000FFF7CAFF4FF480400021BDE80840FFF727
:1023F000C3BF00BF0030014000380040003C004037
:102400002DE9F0030D88B1F80E90B1F80680B1F80F
:1024100008C04F8902888E898C880B8A498849EACE
:10242000050949EA080545EA0C0848EA07073E435A
:1024300002F4415C4CEA060295B20580878827F4D5
:1024400070664FEA06494FEA194848EA0404848056
:102450000382038823F0040215042F0C3943018002
:10246000868B26F400644FEA044C4FEA1C49A0F81E
:102470001C90BDE8F0037047838B8A68F0B5054671
:1024800023F47B600C4620F00F010E04370C02236E
:10249000AF832B84A88B9A428DB086B23CD0A288A1
:1024A0006846002A14BF02270127FFF74DFEE38884
:1024B0000099B3F5007F31D07801B1FBF0FCA7683B
:1024C0000CEB8C0E4FEA4E02B2FBF7F1481D87B2BF
:1024D000184AA2FB0701CF084FEA570CACF10200E3
:1024E00081B207F00102FD2994BF4CEA02220222C8
:1024F0002188B4F802C0A788A4890E4346F400607E
:1025000040EA0C010F43134347EA040296B29CB21F
:102510002C84AE830DB0F0BDE388E9E74FEA112CBF
:102520000CEB8C02A1685000B0FBF1FE0EF1050728
:10253000BFB2CDE7CDCCCCCC038839B923F0400174
:102540000A044FEA124CA0F800C070479BB243F057
:1025500040010180704700BF838B39B923F480614B
:102560000A044FEA124CA0F81CC070479BB243F417
:1025700080618183704700BF83881FFA83FC1AB98A
:102580002CEA01018180704741EA0C028280704789
:10259000002100F004B80D4B5B58435004310C4847
:1025A0000C4B42189A42FFF4F6AF0B4A00F003B806
:1025B000002342F8043B094B9A42FFF4F9AFFFF7BE
:1025C00045F900F025F8FEF71FF87047502B00087A
:1025D000000000203002002030020020901900206E
:1025E000FFF7FEBF03460846194600F001B8000099
:1025F00070B5064C06460D4613462CB131462A46A8
:102600000220AFF3008070BD204670BD00000000C6
:1026100070B50E4B0E4DED1AAD1000241E46AC42A7
:1026200004D056F8242090470134F8E700F07AFAF5
:10263000084D094BED1AAD1000241E46AC4204D0E3
:1026400056F8242090470134F8E770BD00000000E0
:1026500000000000482B00083C2B000810B50023A8
:10266000934203D0CC5CC4540133F9E710BD02445B
:102670000346934202D003F8011BFAE770470000BB
:10268000ECFF2800C9FF4000FF004000C9FF280000
:10269000EBFFCDFF7B00FF007B00CDFFEBFF0000D9
:1026A000BAFF1900B400FF00B4001900BAFF00001F
:1026B000DDFF5500CD00FF00CD005500DDFF00001F
:1026C000000000000000000000000000802600085C
:1026D0009026000800000000A0260008000000006E
:1026E000B02600080000000000000000000000000C
:1026F00004270008000000000000000000000000A7
:10270000142700082D009500E300FF00E30095006A
:102710002D00000000006200B400EC00FF00EC009F
:10272000B400620000000000963007772C610EEEC6
:10273000BA51099919C46D078FF46A7035A563E918
:10274000A395649E3288DB0EA4B8DC791EE9D5E03F
:1027500088D9D2972B4CB609BD7CB17E072DB8E73E
:10276000911DBF906410B71DF220B06A4871B9F393
:10277000DE41BE847DD4DA1AEBE4DD6D51B5D4F4CC
:10278000C785D38356986C13C0A86B647AF962FD31
:10279000ECC9658A4F5C0114D96C0663633D0FFA7E
:1027A000F50D088DC8206E3B5E10694CE44160D584
:1027B000727167A2D1E4033C47D4044BFD850DD26E
:1027C0006BB50AA5FAA8B5356C98B242D6C9BBDB81
:1027D00040F9BCACE36CD832755CDF45CF0DD6DC7C
:1027E000593DD1ABAC30D9263A00DE518051D7C823
:1027F0001661D0BFB5F4B42123C4B3569995BACFAE
:102800000FA5BDB89EB802280888055FB2D90CC6CE
:1028100024E90BB1877C6F2F114C6858AB1D61C147
:102820003D2D66B69041DC760671DB01BC20D29866
:102830002A10D5EF8985B1711FB5B606A5E4BF9FF3
:1028400033D4B8E8A2C9077834F9000F8EA80996E6
:1028500018980EE1BB0D6A7F2D3D6D08976C649151
:10286000015C63E6F4516B6B62616C1CD83065856A
:102870004E0062F2ED95066C7BA5011BC1F4088247
:1028800057C40FF5C6D9B06550E9B712EAB8BE8B88
:102890007C88B9FCDF1DDD62492DDA15F37CD38C11
:1028A000654CD4FB5861B24DCE51B53A7400BCA30F
:1028B000E230BBD441A5DF4AD795D83D6DC4D1A441
:1028C000FBF4D6D36AE96943FCD96E34468867AD18
:1028D000D0B860DA732D0444E51D03335F4C0AAAB7
:1028E000C97C0DDD3C710550AA41022710100BBEBA
:1028F00086200CC925B56857B3856F2009D466B901
:102900009FE461CE0EF9DE5E98C9D9292298D0B035
:10291000B4A8D7C7173DB359810DB42E3B5CBDB7E2
:10292000AD6CBAC02083B8EDB6B3BF9A0CE2B60363
:102930009AD2B1743947D5EAAF77D29D1526DB0418
:102940008316DC73120B63E3843B64943E6A6D0D63
:10295000A85A6A7A0BCF0EE49DFF099327AE000AAE
:10296000B19E077D44930FF0D2A3088768F2011E41
:10297000FEC206695D5762F7CB67658071366C19D8
:10298000E7066B6E761BD4FEE02BD3895A7ADA10F9
:10299000CC4ADD676FDFB9F9F9EFBE8E43BEB717DA
:1029A000D58EB060E8A3D6D67E93D1A1C4C2D83864
:1029B00052F2DF4FF167BBD16757BCA6DD06B53FCA
:1029C0004B36B248DA2B0DD84C1B0AAFF64A033609
:1029D000607A0441C3EF60DF55DF67A8EF8E6E3188
:1029E00079BE69468CB361CB1A8366BCA0D26F25D1
:1029F00036E2685295770CCC03470BBBB91602221E
:102A00002F260555BE3BBAC5280BBDB2925AB42B32
:102A1000046AB35CA7FFD7C231CFD0B58B9ED92C47
:102A20001DAEDE5BB0C2649B26F263EC9CA36A75AC
:102A30000A936D02A906099C3F360EEB8567077263
:102A400013570005824ABF95147AB8E2AE2BB17BCA
:102A5000381BB60C9B8ED2920DBED5E5B7EFDC7C51
:102A600021DFDB0BD4D2D38642E2D4F1F8B3DD68A8
:102A70006E83DA1FCD16BE815B26B9F6E177B06FA3
:102A80007747B718E65A0888706A0FFFCA3B066690
:102A90005C0B0111FF9E658F69AE62F8D3FF6B611D
:102AA00045CF6C1678E20AA0EED20DD75483044EBF
:102AB000C2B30339612667A7F71660D04D4769494D
:102AC000DB776E3E4A6AD1AEDC5AD6D9660BDF4060
:102AD000F03BD83753AEBCA9C59EBBDE7FCFB24713
:102AE000E9FFB5301CF2BDBD8AC2BACA3093B353F8
:102AF000A6A3B4240536D0BA9306D7CD2957DE5401
:102B0000BF67D9232E7A66B3B84A61C4021B685DD9
:102B1000942B6F2A37BE0BB4A18E0CC31BDF055A52
:102B20008DEF022DF8B500BFF8BC08BC9E4670477B
:102B3000F8B500BFF8BC08BC9E467047B501000858
:102B4000FD07000835180008000000000000000024
:102B500000000000401F00000000320064009600EA
:102B6000C800FA002C015E018F01C001F1012202B0
:102B700052028202B102E1020F033D036B0398038C
:102B8000C503F1031C04470471049B04C304EB0454
:102B9000130539055F058405A805CB05ED050E066F
:102BA0002F064E066C068A06A606C206DC06F50649
:102BB0000E0725073B075007640776078807980725
:102BC000A707B507C207CE07D807E107E907F0074F
:102BD000F607FA07FD07FF070008FF07FD07FA07DA
:102BE000F607F007E907E107D807CE07C207B507E0
:102BF000A707980788077607640750073B0725074C
:102C00000E07F506DC06C206A6068A066C064E0608
:102C10002F060E06ED05CB05A80584055F053905D1
:102C20001305EB04C3049B04710447041C04F10363
:102C3000C50398036B033D030F03E102B102820257
:102C400052022202F101C0018F015E012C01FA0043
:102C5000C8009600640032000000CEFF9CFF6AFFAF
:102C600038FF06FFD4FEA2FE71FE40FE0FFEDEFD21
:102C7000AEFD7EFD4FFD1FFDF1FCC3FC95FC68FC25
:102C80003BFC0FFCE4FBB9FB8FFB65FB3DFB15FB3D
:102C9000EDFAC7FAA1FA7CFA58FA35FA13FAF2F902
:102CA000D1F9B2F994F976F95AF93EF924F90BF908
:102CB000F2F8DBF8C5F8B0F89CF88AF878F868F80C
:102CC00059F84BF83EF832F828F81FF817F810F8C2
:102CD0000AF806F803F801F800F801F803F806F816
:102CE0000AF810F817F81FF828F832F83EF84BF8F1
:102CF00059F868F878F88AF89CF8B0F8C5F8DBF865
:102D0000F2F80BF924F93EF95AF976F994F9B2F987
:102D1000D1F9F2F913FA35FA58FA7CFAA1FAC7FA9E
:102D2000EDFA15FB3DFB65FB8FFBB9FBE4FB0FFCEC
:102D30003BFC68FC95FCC3FCF1FC1FFD4FFD7EFDD8
:102D4000AEFDDEFD0FFE40FE71FEA2FED4FE06FFCC
:102D500038FF6AFF9CFFCEFF000000000204060857
:102D6000020406080A0C0E1014181C2024282C300B
:102D70000000000001020304010203040607080921
:040000050800259139
:00000001FF
